{
  "_format": "hh-sol-artifact-1",
  "contractName": "DEX",
  "sourceName": "contracts/DEX.sol",
  "abi": [
    {
      "inputs": [
        {
          "internalType": "address",
          "name": "_token0",
          "type": "address"
        },
        {
          "internalType": "address",
          "name": "_token1",
          "type": "address"
        }
      ],
      "stateMutability": "nonpayable",
      "type": "constructor"
    },
    {
      "inputs": [],
      "name": "AmountOutTooLow",
      "type": "error"
    },
    {
      "inputs": [],
      "name": "InsufficientAmount",
      "type": "error"
    },
    {
      "inputs": [],
      "name": "InsufficientLiquidity",
      "type": "error"
    },
    {
      "inputs": [],
      "name": "InvalidToken",
      "type": "error"
    },
    {
      "inputs": [],
      "name": "ReentrancyGuardReentrantCall",
      "type": "error"
    },
    {
      "inputs": [
        {
          "internalType": "address",
          "name": "token",
          "type": "address"
        }
      ],
      "name": "SafeERC20FailedOperation",
      "type": "error"
    },
    {
      "anonymous": false,
      "inputs": [
        {
          "indexed": true,
          "internalType": "address",
          "name": "user",
          "type": "address"
        },
        {
          "indexed": true,
          "internalType": "address",
          "name": "token",
          "type": "address"
        },
        {
          "indexed": false,
          "internalType": "uint256",
          "name": "amount",
          "type": "uint256"
        }
      ],
      "name": "Deposited",
      "type": "event"
    },
    {
      "anonymous": false,
      "inputs": [
        {
          "indexed": true,
          "internalType": "address",
          "name": "provider",
          "type": "address"
        },
        {
          "indexed": false,
          "internalType": "uint256",
          "name": "amount0",
          "type": "uint256"
        },
        {
          "indexed": false,
          "internalType": "uint256",
          "name": "amount1",
          "type": "uint256"
        },
        {
          "indexed": false,
          "internalType": "uint256",
          "name": "lpMinted",
          "type": "uint256"
        }
      ],
      "name": "LiquidityAdded",
      "type": "event"
    },
    {
      "anonymous": false,
      "inputs": [
        {
          "indexed": true,
          "internalType": "address",
          "name": "provider",
          "type": "address"
        },
        {
          "indexed": false,
          "internalType": "uint256",
          "name": "amount0",
          "type": "uint256"
        },
        {
          "indexed": false,
          "internalType": "uint256",
          "name": "amount1",
          "type": "uint256"
        },
        {
          "indexed": false,
          "internalType": "uint256",
          "name": "lpBurned",
          "type": "uint256"
        }
      ],
      "name": "LiquidityRemoved",
      "type": "event"
    },
    {
      "anonymous": false,
      "inputs": [
        {
          "indexed": true,
          "internalType": "address",
          "name": "trader",
          "type": "address"
        },
        {
          "indexed": true,
          "internalType": "address",
          "name": "tokenIn",
          "type": "address"
        },
        {
          "indexed": false,
          "internalType": "uint256",
          "name": "amountIn",
          "type": "uint256"
        },
        {
          "indexed": true,
          "internalType": "address",
          "name": "tokenOut",
          "type": "address"
        },
        {
          "indexed": false,
          "internalType": "uint256",
          "name": "amountOut",
          "type": "uint256"
        },
        {
          "indexed": false,
          "internalType": "address",
          "name": "to",
          "type": "address"
        }
      ],
      "name": "Swapped",
      "type": "event"
    },
    {
      "anonymous": false,
      "inputs": [
        {
          "indexed": true,
          "internalType": "address",
          "name": "user",
          "type": "address"
        },
        {
          "indexed": true,
          "internalType": "address",
          "name": "token",
          "type": "address"
        },
        {
          "indexed": false,
          "internalType": "uint256",
          "name": "amount",
          "type": "uint256"
        }
      ],
      "name": "Withdrawn",
      "type": "event"
    },
    {
      "inputs": [
        {
          "internalType": "uint256",
          "name": "amount0Desired",
          "type": "uint256"
        },
        {
          "internalType": "uint256",
          "name": "amount1Desired",
          "type": "uint256"
        }
      ],
      "name": "addLiquidity",
      "outputs": [
        {
          "internalType": "uint256",
          "name": "lpMinted",
          "type": "uint256"
        }
      ],
      "stateMutability": "nonpayable",
      "type": "function"
    },
    {
      "inputs": [
        {
          "internalType": "address",
          "name": "",
          "type": "address"
        },
        {
          "internalType": "address",
          "name": "",
          "type": "address"
        }
      ],
      "name": "balances",
      "outputs": [
        {
          "internalType": "uint256",
          "name": "",
          "type": "uint256"
        }
      ],
      "stateMutability": "view",
      "type": "function"
    },
    {
      "inputs": [
        {
          "internalType": "address",
          "name": "token",
          "type": "address"
        },
        {
          "internalType": "uint256",
          "name": "amount",
          "type": "uint256"
        }
      ],
      "name": "deposit",
      "outputs": [],
      "stateMutability": "nonpayable",
      "type": "function"
    },
    {
      "inputs": [
        {
          "internalType": "uint256",
          "name": "amountIn",
          "type": "uint256"
        },
        {
          "internalType": "address",
          "name": "tokenIn",
          "type": "address"
        }
      ],
      "name": "getAmountOut",
      "outputs": [
        {
          "internalType": "uint256",
          "name": "",
          "type": "uint256"
        }
      ],
      "stateMutability": "view",
      "type": "function"
    },
    {
      "inputs": [
        {
          "internalType": "address",
          "name": "baseToken",
          "type": "address"
        }
      ],
      "name": "getPrice",
      "outputs": [
        {
          "internalType": "uint256",
          "name": "numerator",
          "type": "uint256"
        },
        {
          "internalType": "uint256",
          "name": "denominator",
          "type": "uint256"
        }
      ],
      "stateMutability": "view",
      "type": "function"
    },
    {
      "inputs": [],
      "name": "lpToken",
      "outputs": [
        {
          "internalType": "contract LPToken",
          "name": "",
          "type": "address"
        }
      ],
      "stateMutability": "view",
      "type": "function"
    },
    {
      "inputs": [
        {
          "internalType": "uint256",
          "name": "lpAmount",
          "type": "uint256"
        }
      ],
      "name": "removeLiquidity",
      "outputs": [
        {
          "internalType": "uint256",
          "name": "amount0",
          "type": "uint256"
        },
        {
          "internalType": "uint256",
          "name": "amount1",
          "type": "uint256"
        }
      ],
      "stateMutability": "nonpayable",
      "type": "function"
    },
    {
      "inputs": [],
      "name": "reserve0",
      "outputs": [
        {
          "internalType": "uint256",
          "name": "",
          "type": "uint256"
        }
      ],
      "stateMutability": "view",
      "type": "function"
    },
    {
      "inputs": [],
      "name": "reserve1",
      "outputs": [
        {
          "internalType": "uint256",
          "name": "",
          "type": "uint256"
        }
      ],
      "stateMutability": "view",
      "type": "function"
    },
    {
      "inputs": [
        {
          "internalType": "address",
          "name": "tokenIn",
          "type": "address"
        },
        {
          "internalType": "uint256",
          "name": "amountIn",
          "type": "uint256"
        },
        {
          "internalType": "uint256",
          "name": "minAmountOut",
          "type": "uint256"
        },
        {
          "internalType": "address",
          "name": "to",
          "type": "address"
        }
      ],
      "name": "swapExactTokensForTokens",
      "outputs": [
        {
          "internalType": "uint256",
          "name": "amountOut",
          "type": "uint256"
        }
      ],
      "stateMutability": "nonpayable",
      "type": "function"
    },
    {
      "inputs": [],
      "name": "token0",
      "outputs": [
        {
          "internalType": "address",
          "name": "",
          "type": "address"
        }
      ],
      "stateMutability": "view",
      "type": "function"
    },
    {
      "inputs": [],
      "name": "token1",
      "outputs": [
        {
          "internalType": "address",
          "name": "",
          "type": "address"
        }
      ],
      "stateMutability": "view",
      "type": "function"
    },
    {
      "inputs": [
        {
          "internalType": "address",
          "name": "token",
          "type": "address"
        },
        {
          "internalType": "uint256",
          "name": "amount",
          "type": "uint256"
        }
      ],
      "name": "withdraw",
      "outputs": [],
      "stateMutability": "nonpayable",
      "type": "function"
    }
  ],
  "bytecode": "0x60e06040523480156200001157600080fd5b50604051620022e0380380620022e0833981016040819052620000349162000155565b60016000556001600160a01b03808216908316036200008c5760405162461bcd60e51b815260206004820152601060248201526f4944454e544943414c5f544f4b454e5360801b604482015260640160405180910390fd5b6001600160a01b03808316608052811660a0526040513090620000af906200012a565b606080825260069082015265098a05a888ab60d31b608082015260a0602082018190526003908201526213141160ea1b60c08201526001600160a01b03909116604082015260e001604051809103906000f08015801562000114573d6000803e3d6000fd5b506001600160a01b031660c052506200018d9050565b610ceb80620015f583390190565b80516001600160a01b03811681146200015057600080fd5b919050565b600080604083850312156200016957600080fd5b620001748362000138565b9150620001846020840162000138565b90509250929050565b60805160a05160c0516113a66200024f6000396000818161017a015281816103fa0152818161054e0152818161088201526109a10152600081816101f20152818161061701528181610708015281816107e40152818161082601528181610b290152610fc101526000818160d901528181610278015281816105e3015281816106dd015281816107550152818161079701528181610aca01528181610b0301528181610bc401528181610c6b01528181610d7e0152610f8601526113a66000f3fe608060405234801561001057600080fd5b50600436106100cf5760003560e01c80639c8f9f231161008c578063d21220a711610066578063d21220a7146101ed578063d887493614610214578063f140a35a14610227578063f3fef3a31461023a57600080fd5b80639c8f9f231461019c5780639cd441da146101af578063c23f001f146101c257600080fd5b80630dfe1681146100d457806341976e0914610118578063443cb4bc1461014057806347e7ef24146101575780635a76f25e1461016c5780635fcbd28514610175575b600080fd5b6100fb7f000000000000000000000000000000000000000000000000000000000000000081565b6040516001600160a01b0390911681526020015b60405180910390f35b61012b6101263660046111bf565b61024d565b6040805192835260208301919091520161010f565b61014960015481565b60405190815260200161010f565b61016a6101653660046111e1565b6102d2565b005b61014960025481565b6100fb7f000000000000000000000000000000000000000000000000000000000000000081565b61012b6101aa36600461120b565b6103bc565b6101496101bd366004611224565b61068e565b6101496101d0366004611246565b600360209081526000928352604080842090915290825290205481565b6100fb7f000000000000000000000000000000000000000000000000000000000000000081565b610149610222366004611279565b610a75565b6101496102353660046112bf565b610d51565b61016a6102483660046111e1565b610e40565b60008061025983610f82565b6102765760405163c1ab6dc160e01b815260040160405180910390fd5b7f00000000000000000000000000000000000000000000000000000000000000006001600160a01b0316836001600160a01b0316036102be5760025460015491509150915091565b60015460025491509150915091565b915091565b6102da610ffa565b6102e382610f82565b6103005760405163c1ab6dc160e01b815260040160405180910390fd5b8060000361032157604051632ca2f52b60e11b815260040160405180910390fd5b6103366001600160a01b038316333084611024565b3360009081526003602090815260408083206001600160a01b0386168452909152812080548392906103699084906112f8565b90915550506040518181526001600160a01b0383169033907f8752a472e571a816aea92eec8dae9baf628e840f4929fbcc2d155e6233ff68a79060200160405180910390a36103b86001600055565b5050565b6000806103c7610ffa565b826000036103e857604051632ca2f52b60e11b815260040160405180910390fd5b600060015490506000600254905060007f00000000000000000000000000000000000000000000000000000000000000006001600160a01b03166318160ddd6040518163ffffffff1660e01b8152600401602060405180830381865afa158015610456573d6000803e3d6000fd5b505050506040513d601f19601f8201168201806040525081019061047a919061130b565b9050600081116104b95760405162461bcd60e51b815260206004820152600560248201526404e4f5f4c560dc1b60448201526064015b60405180910390fd5b806104c48488611324565b6104ce919061133b565b9450806104db8388611324565b6104e5919061133b565b93506000851180156104f75750600084115b6105325760405162461bcd60e51b815260206004820152600c60248201526b414d4f554e54535f5a45524f60a01b60448201526064016104b0565b604051632770a7eb60e21b8152336004820152602481018790527f00000000000000000000000000000000000000000000000000000000000000006001600160a01b031690639dc29fac90604401600060405180830381600087803b15801561059a57600080fd5b505af11580156105ae573d6000803e3d6000fd5b505050506105d685846105c1919061135d565b6105cb868561135d565b600191909155600255565b61060a6001600160a01b037f0000000000000000000000000000000000000000000000000000000000000000163387611091565b61063e6001600160a01b037f0000000000000000000000000000000000000000000000000000000000000000163386611091565b604080518681526020810186905290810187905233907f1dc8bb69df2b8e91fbdcbfcf93d951b3f0000f085a95fe3f7946d6161439245d9060600160405180910390a25050506102cd6001600055565b6000610698610ffa565b8215806106a3575081155b156106c157604051632ca2f52b60e11b815260040160405180910390fd5b3360009081526003602090815260408083206001600160a01b037f0000000000000000000000000000000000000000000000000000000000000000811685529252808320547f000000000000000000000000000000000000000000000000000000000000000090921683529091205484821061078a57610741858361135d565b3360009081526003602090815260408083207f00000000000000000000000000000000000000000000000000000000000000006001600160a01b031684529091529020556107bf565b6107bf6001600160a01b037f000000000000000000000000000000000000000000000000000000000000000016333088611024565b838110610819576107d0848261135d565b3360009081526003602090815260408083207f00000000000000000000000000000000000000000000000000000000000000006001600160a01b0316845290915290205561084e565b61084e6001600160a01b037f000000000000000000000000000000000000000000000000000000000000000016333087611024565b60015460025481158015610860575080155b1561087e576108776108728789611324565b6110c7565b945061094b565b60007f00000000000000000000000000000000000000000000000000000000000000006001600160a01b03166318160ddd6040518163ffffffff1660e01b8152600401602060405180830381865afa1580156108de573d6000803e3d6000fd5b505050506040513d601f19601f82011682018060405250810190610902919061130b565b9050600083610911838b611324565b61091b919061133b565b905060008361092a848b611324565b610934919061133b565b90508082106109435780610945565b815b97505050505b600085116109855760405162461bcd60e51b81526020600482015260076024820152664c505f5a45524f60c81b60448201526064016104b0565b6040516340c10f1960e01b8152336004820152602481018690527f00000000000000000000000000000000000000000000000000000000000000006001600160a01b0316906340c10f1990604401600060405180830381600087803b1580156109ed57600080fd5b505af1158015610a01573d6000803e3d6000fd5b50505050610a1e8783610a1491906112f8565b6105cb88846112f8565b604080518881526020810188905290810186905233907f64b83944e79c3ce8d4c297411de637c3e102d064677aac0c163976ebdcd6f50e9060600160405180910390a250505050610a6f6001600055565b92915050565b6000610a7f610ffa565b610a8885610f82565b610aa55760405163c1ab6dc160e01b815260040160405180910390fd5b83600003610ac657604051632ca2f52b60e11b815260040160405180910390fd5b60007f00000000000000000000000000000000000000000000000000000000000000006001600160a01b0316866001600160a01b031614610b27577f0000000000000000000000000000000000000000000000000000000000000000610b49565b7f00000000000000000000000000000000000000000000000000000000000000005b3360009081526003602090815260408083206001600160a01b038b168452909152902054909150858110610baa57610b81868261135d565b3360009081526003602090815260408083206001600160a01b038c168452909152902055610bbf565b610bbf6001600160a01b038816333089611024565b6000807f00000000000000000000000000000000000000000000000000000000000000006001600160a01b0316896001600160a01b031614610c0657600254600154610c0d565b6001546002545b915091508160001480610c1e575080155b15610c3c5760405163bb55fd2760e01b815260040160405180910390fd5b610c46888a610d51565b945086851015610c6957604051636bbaf52b60e01b815260040160405180910390fd5b7f00000000000000000000000000000000000000000000000000000000000000006001600160a01b0316896001600160a01b031603610cbe57610cb9610caf89846112f8565b6105cb878461135d565b610cd5565b610cd5610ccb868361135d565b6105cb8a856112f8565b610ce96001600160a01b0385168787611091565b60408051898152602081018790526001600160a01b03888116828401529151868316928c169133917f6135b536e33070976edb6dc1ecd6f9235b0d3a24970b028cd9dc6994bd0d5ec09181900360600190a450505050610d496001600055565b949350505050565b6000610d5c82610f82565b610d795760405163c1ab6dc160e01b815260040160405180910390fd5b6000807f00000000000000000000000000000000000000000000000000000000000000006001600160a01b0316846001600160a01b031614610dc057600254600154610dc7565b6001546002545b915091508460001480610dd8575081155b80610de1575080155b15610df157600092505050610a6f565b6000610dff6103e587611324565b90506000610e0d8383611324565b9050600082610e1e6103e887611324565b610e2891906112f8565b9050610e34818361133b565b98975050505050505050565b610e48610ffa565b610e5182610f82565b610e6e5760405163c1ab6dc160e01b815260040160405180910390fd5b80600003610e8f57604051632ca2f52b60e11b815260040160405180910390fd5b3360009081526003602090815260408083206001600160a01b038616845290915290205481811015610efa5760405162461bcd60e51b8152602060048201526014602482015273494e53554646494349454e545f42414c414e434560601b60448201526064016104b0565b610f04828261135d565b3360008181526003602090815260408083206001600160a01b038916808552925290912092909255610f37919084611091565b6040518281526001600160a01b0384169033907fd1c19fbcd4551a5edfb66d43d2e337c04837afda3482b42bdf569a8fccdae5fb9060200160405180910390a3506103b86001600055565b60007f00000000000000000000000000000000000000000000000000000000000000006001600160a01b0316826001600160a01b03161480610a6f57507f00000000000000000000000000000000000000000000000000000000000000006001600160a01b0316826001600160a01b03161492915050565b60026000540361101d57604051633ee5aeb560e01b815260040160405180910390fd5b6002600055565b6040516001600160a01b03848116602483015283811660448301526064820183905261108b9186918216906323b872dd906084015b604051602081830303815290604052915060e01b6020820180516001600160e01b038381831617835250505050611137565b50505050565b6040516001600160a01b038381166024830152604482018390526110c291859182169063a9059cbb90606401611059565b505050565b6000600382111561112857508060006110e160028361133b565b6110ec9060016112f8565b90505b8181101561112257905080600281611107818661133b565b61111191906112f8565b61111b919061133b565b90506110ef565b50919050565b8115611132575060015b919050565b600080602060008451602086016000885af18061115a576040513d6000823e3d81fd5b50506000513d9150811561117257806001141561117f565b6001600160a01b0384163b155b1561108b57604051635274afe760e01b81526001600160a01b03851660048201526024016104b0565b80356001600160a01b038116811461113257600080fd5b6000602082840312156111d157600080fd5b6111da826111a8565b9392505050565b600080604083850312156111f457600080fd5b6111fd836111a8565b946020939093013593505050565b60006020828403121561121d57600080fd5b5035919050565b6000806040838503121561123757600080fd5b50508035926020909101359150565b6000806040838503121561125957600080fd5b611262836111a8565b9150611270602084016111a8565b90509250929050565b6000806000806080858703121561128f57600080fd5b611298856111a8565b935060208501359250604085013591506112b4606086016111a8565b905092959194509250565b600080604083850312156112d257600080fd5b82359150611270602084016111a8565b634e487b7160e01b600052601160045260246000fd5b80820180821115610a6f57610a6f6112e2565b60006020828403121561131d57600080fd5b5051919050565b8082028115828204841417610a6f57610a6f6112e2565b60008261135857634e487b7160e01b600052601260045260246000fd5b500490565b81810381811115610a6f57610a6f6112e256fea2646970667358221220d4ce6ab69f3da5d442e9971fce44520483848dbd7fe41c858c764e03f040cdb464736f6c6343000818003360806040523480156200001157600080fd5b5060405162000ceb38038062000ceb8339810160408190526200003491620001b5565b8083836003620000458382620002d3565b506004620000548282620002d3565b5050506001600160a01b0381166200008657604051631e4fbdf760e01b81526000600482015260240160405180910390fd5b62000091816200009b565b505050506200039f565b600580546001600160a01b038381166001600160a01b0319831681179093556040519116919082907f8be0079c531659141344cd1fd0a4f28419497f9722a3daafe3b4186f6b6457e090600090a35050565b634e487b7160e01b600052604160045260246000fd5b600082601f8301126200011557600080fd5b81516001600160401b0380821115620001325762000132620000ed565b604051601f8301601f19908116603f011681019082821181831017156200015d576200015d620000ed565b81604052838152602092508660208588010111156200017b57600080fd5b600091505b838210156200019f578582018301518183018401529082019062000180565b6000602085830101528094505050505092915050565b600080600060608486031215620001cb57600080fd5b83516001600160401b0380821115620001e357600080fd5b620001f18783880162000103565b945060208601519150808211156200020857600080fd5b50620002178682870162000103565b604086015190935090506001600160a01b03811681146200023757600080fd5b809150509250925092565b600181811c908216806200025757607f821691505b6020821081036200027857634e487b7160e01b600052602260045260246000fd5b50919050565b601f821115620002ce576000816000526020600020601f850160051c81016020861015620002a95750805b601f850160051c820191505b81811015620002ca57828155600101620002b5565b5050505b505050565b81516001600160401b03811115620002ef57620002ef620000ed565b620003078162000300845462000242565b846200027e565b602080601f8311600181146200033f5760008415620003265750858301515b600019600386901b1c1916600185901b178555620002ca565b600085815260208120601f198616915b8281101562000370578886015182559484019460019091019084016200034f565b50858210156200038f5787850151600019600388901b60f8161c191681555b5050505050600190811b01905550565b61093c80620003af6000396000f3fe608060405234801561001057600080fd5b50600436106100ea5760003560e01c8063715018a61161008c5780639dc29fac116100665780639dc29fac146101cd578063a9059cbb146101e0578063dd62ed3e146101f3578063f2fde38b1461022c57600080fd5b8063715018a6146101a25780638da5cb5b146101aa57806395d89b41146101c557600080fd5b806323b872dd116100c857806323b872dd14610142578063313ce5671461015557806340c10f191461016457806370a082311461017957600080fd5b806306fdde03146100ef578063095ea7b31461010d57806318160ddd14610130575b600080fd5b6100f761023f565b6040516101049190610785565b60405180910390f35b61012061011b3660046107f0565b6102d1565b6040519015158152602001610104565b6002545b604051908152602001610104565b61012061015036600461081a565b6102eb565b60405160128152602001610104565b6101776101723660046107f0565b61030f565b005b610134610187366004610856565b6001600160a01b031660009081526020819052604090205490565b610177610325565b6005546040516001600160a01b039091168152602001610104565b6100f7610339565b6101776101db3660046107f0565b610348565b6101206101ee3660046107f0565b61035a565b610134610201366004610878565b6001600160a01b03918216600090815260016020908152604080832093909416825291909152205490565b61017761023a366004610856565b610368565b60606003805461024e906108ab565b80601f016020809104026020016040519081016040528092919081815260200182805461027a906108ab565b80156102c75780601f1061029c576101008083540402835291602001916102c7565b820191906000526020600020905b8154815290600101906020018083116102aa57829003601f168201915b5050505050905090565b6000336102df8185856103ab565b60019150505b92915050565b6000336102f98582856103bd565b61030485858561043c565b506001949350505050565b61031761049b565b61032182826104c8565b5050565b61032d61049b565b61033760006104fe565b565b60606004805461024e906108ab565b61035061049b565b6103218282610550565b6000336102df81858561043c565b61037061049b565b6001600160a01b03811661039f57604051631e4fbdf760e01b8152600060048201526024015b60405180910390fd5b6103a8816104fe565b50565b6103b88383836001610586565b505050565b6001600160a01b03838116600090815260016020908152604080832093861683529290522054600019811015610436578181101561042757604051637dc7a0d960e11b81526001600160a01b03841660048201526024810182905260448101839052606401610396565b61043684848484036000610586565b50505050565b6001600160a01b03831661046657604051634b637e8f60e11b815260006004820152602401610396565b6001600160a01b0382166104905760405163ec442f0560e01b815260006004820152602401610396565b6103b883838361065b565b6005546001600160a01b031633146103375760405163118cdaa760e01b8152336004820152602401610396565b6001600160a01b0382166104f25760405163ec442f0560e01b815260006004820152602401610396565b6103216000838361065b565b600580546001600160a01b038381166001600160a01b0319831681179093556040519116919082907f8be0079c531659141344cd1fd0a4f28419497f9722a3daafe3b4186f6b6457e090600090a35050565b6001600160a01b03821661057a57604051634b637e8f60e11b815260006004820152602401610396565b6103218260008361065b565b6001600160a01b0384166105b05760405163e602df0560e01b815260006004820152602401610396565b6001600160a01b0383166105da57604051634a1406b160e11b815260006004820152602401610396565b6001600160a01b038085166000908152600160209081526040808320938716835292905220829055801561043657826001600160a01b0316846001600160a01b03167f8c5be1e5ebec7d5bd14f71427d1e84f3dd0314c0f7b2291e5b200ac8c7c3b9258460405161064d91815260200190565b60405180910390a350505050565b6001600160a01b03831661068657806002600082825461067b91906108e5565b909155506106f89050565b6001600160a01b038316600090815260208190526040902054818110156106d95760405163391434e360e21b81526001600160a01b03851660048201526024810182905260448101839052606401610396565b6001600160a01b03841660009081526020819052604090209082900390555b6001600160a01b03821661071457600280548290039055610733565b6001600160a01b03821660009081526020819052604090208054820190555b816001600160a01b0316836001600160a01b03167fddf252ad1be2c89b69c2b068fc378daa952ba7f163c4a11628f55a4df523b3ef8360405161077891815260200190565b60405180910390a3505050565b60006020808352835180602085015260005b818110156107b357858101830151858201604001528201610797565b506000604082860101526040601f19601f8301168501019250505092915050565b80356001600160a01b03811681146107eb57600080fd5b919050565b6000806040838503121561080357600080fd5b61080c836107d4565b946020939093013593505050565b60008060006060848603121561082f57600080fd5b610838846107d4565b9250610846602085016107d4565b9150604084013590509250925092565b60006020828403121561086857600080fd5b610871826107d4565b9392505050565b6000806040838503121561088b57600080fd5b610894836107d4565b91506108a2602084016107d4565b90509250929050565b600181811c908216806108bf57607f821691505b6020821081036108df57634e487b7160e01b600052602260045260246000fd5b50919050565b808201808211156102e557634e487b7160e01b600052601160045260246000fdfea264697066735822122007056f5055a96a3584d529fdc3f17bcab63e78631997f96d8e216609943b544c64736f6c63430008180033",
  "linkReferences": {},
  "deployedLinkReferences": {}
}